:100000000C9463000C945B0F0C94340F0C948B00D5
:100010000C948B000C948B000C948B000C948B0034
:100020000C948B000C948B000C948B000C948B0024
:100030000C948B000C948B000C948B000C948B0014
:100040000C94EA0E0C948B000C94B80E0C94920E47
:100050000C948B000C948B000C948B000C948B00F4
:100060000C948B000C948B000000000023002600F1
:10007000290000000000240027002A0000000000E2
:10008000250028002B0004040404040404040202D4
:100090000202020203030303030301020408102007
:1000A0004080010204081020010204081020000012
:1000B0000008000201000003040700000000000027
:1000C0000000CA10DA1411241FBECFEFD8E0DEBF43
:1000D000CDBF12E0A0E0B1E0E0E9FCE202C0059093
:1000E0000D92AE3FB107D9F725E0AEEFB2E001C007
:1000F0001D92A730B207E1F710E0C2E6D0E004C0DD
:100100002197FE010E940415C136D107C9F70E944C
:10011000D3120C943B160C940000AF92BF92CF9276
:10012000DF92EF92FF920F931F93CF93DF936C01B7
:100130007B018B01040F151FEB015E01AE18BF0898
:10014000C017D10759F06991D601ED91FC9101904A
:10015000F081E02DC6010995892B79F7C501DF9162
:10016000CF911F910F91FF90EF90DF90CF90BF90B4
:10017000AF900895FC01538D448D252F30E0842FDE
:1001800090E0821B930B541710F0CF9608950197BF
:100190000895FC01918D828D981761F0A28DAE0FAC
:1001A000BF2FB11D5D968C91928D9F5F9F73928F33
:1001B00090E008958FEF9FEF0895FC01918D828D5F
:1001C000981731F0828DE80FF11D858D90E008952C
:1001D0008FEF9FEF0895FC01918D228D892F90E084
:1001E000805C9F4F821B91098F739927089580EC43
:1001F00093E00E94EB0021E0892B09F420E0822F9C
:10020000089580E090E0892B29F00E94F700811189
:100210000C9400000895FC01A48DA80FB92FB11D06
:10022000A35ABF4F2C91848D90E001968F7399272C
:10023000848FA689B7892C93A089B1898C9183700A
:1002400080648C93938D848D981306C00288F38903
:10025000E02D80818F7D80830895EF92FF920F9330
:100260001F93CF93DF93EC0181E0888F9B8D8C8D62
:1002700098131AC0E889F989808185FF15C09FB756
:10028000F894EE89FF896083E889F9898081837019
:10029000806480839FBF81E090E0DF91CF911F91C8
:1002A0000F91FF90EF900895F62E0B8D10E00F5FE9
:1002B0001F4F0F731127E02E8C8D8E110CC00FB6BF
:1002C00007FCFACFE889F989808185FFF5CFCE0157
:1002D0000E940B01F1CFEB8DEC0FFD2FF11DE35AC6
:1002E000FF4FF0829FB7F8940B8FEA89FB898081DA
:1002F0008062CFCFCF93DF93EC01888D8823B9F054
:10030000AA89BB89E889F9898C9185FD03C0808120
:1003100086FD0DC00FB607FCF7CF8C9185FFF2CF9D
:10032000808185FFEDCFCE010E940B01E9CFDF91E7
:10033000CF910895833081F028F4813099F0823094
:10034000A9F008958730A9F08830C9F08430B1F45D
:10035000809180008F7D03C0809180008F77809393
:100360008000089584B58F7784BD089584B58F7D0E
:10037000FBCF8091B0008F778093B000089580917B
:10038000B0008F7DF9CFCF93DF9390E0FC01E6566C
:10039000FF4F24918A579F4FFC0184918823C9F015
:1003A00090E0880F991FFC01EE58FF4FA591B49182
:1003B000FC01E458FF4FC591D49161110DC09FB766
:1003C000F8948C91209582238C938881282328830C
:1003D0009FBFDF91CF910895623051F49FB7F89499
:1003E0003C91822F809583238C93E8812E2BEFCF35
:1003F0008FB7F894EC912E2B2C938FBFEACF3FB799
:10040000F8948091030390910403A0910503B091A7
:10041000060326B5A89B05C02F3F19F00196A11D24
:10042000B11D3FBFBA2FA92F982F8827BC01CD013E
:10043000620F711D811D911D42E0660F771F881F9D
:10044000991F4A95D1F708950895CF93DF93FC0142
:10045000DC01A557BF4F8C91811108C0EF01C45733
:10046000DF4F8881882309F45BC08C939C91908333
:1004700080E8890FEF01C657DF4F2881222301F161
:10048000803740F462831882E457FF4F90831C92B8
:1004900081E013C0892F887F803F99F5903F89F1D3
:1004A00062831882EF01C757DF4F8881882319F0D4
:1004B000E457FF4F10821C9285E0DF91CF910895A1
:1004C000803748F4892F807F6183813B38F1803EFB
:1004D00029F11282D9CF892F887F803F81F4903F04
:1004E000A9F4DF01AA57BF4F2D913C9111972038F5
:1004F0003105C0F0E357FF4F608384E0DECF903FCB
:1005000081F3E457FF4F10821C920AC0923F29F0FA
:10051000943FB8F761831282C5CF618381E08883FD
:1005200080E0CBCFE20FF31F66832F5F3F4F2D9309
:100530003C93F6CF0F931F93CF93DF93FC01EC0115
:10054000C557DF4F8881803F69F5673F21F0DF01A4
:10055000A357BF4F6C938F010A571F4FD8018D913E
:100560009C918038910548F0E357FF4F608384E009
:10057000DF91CF911F910F9108959F01280F391F8F
:1005800047EFD90116964C930196D8018D939C9311
:10059000DF01A857BF4F1C921882E457FF4F10820B
:1005A00082E0E6CF663F79F4608311821282DF0138
:1005B000A757BF4F8C91882319F0E457FF4F108243
:1005C000188285E0D5CF603F89F4DF01A857BF4F7F
:1005D00081E08C936683129781E090E08D939C93E9
:1005E000E457FF4F1082688380E0C2CF673FE1F39A
:1005F0006883E657FF4F1082F7CFDC0152968D914A
:100600009C91DC01ED91FC910190F081E02D099429
:10061000CF93DF9300D000D01F92CDB7DEB72983F0
:100620003A834B835C836D83DC0152968D919C9160
:100630004B815C8169817A81DC01ED91FC910280C2
:10064000F381E02D0F900F900F900F900F90DF919E
:10065000CF910994FF920F931F93CF93DF93EC01F7
:10066000142FF52E062F8A899B89DC01ED91FC91D0
:100670000190F081E02D642F0995143FD8F48A8908
:100680009B89DC01ED91FC910190F081E02D6F2DB3
:100690000995123F79F48A899B89DC01ED91FC91DF
:1006A0000190F081E02D602FDF91CF911F910F918C
:1006B000FF900994DF91CF911F910F91FF900895C2
:1006C000FF920F931F93CF93DF938C01C42FF52ECE
:1006D000D62FDC0152968D919C91DC01ED91FC911D
:1006E0000190F081E02D642F0995F80182899389AA
:1006F000DC01ED91FC910190F081E02D6F2D0995C9
:10070000C07FC13B10F0C03E81F4F801828993891B
:10071000DC01ED91FC910190F081E02D6D2FDF91D6
:10072000CF911F910F91FF900994DF91CF911F916D
:100730000F91FF900895EF92FF920F931F93CF9325
:10074000DF93EC018C010C5E1F4FEA88FB88FC01F3
:10075000EF55FF4F60816F3FF1F08FEF808332974D
:100760008081803F31F435971182108281E032968A
:10077000808367FF0BC0683FF8F0688F83E0DF91EC
:10078000CF911F910F91FF90EF900895C8010E94A3
:1007900025028111F4CFD701ED91FC910284F385FC
:1007A000E02DC701099597FD0BC0682F87FFEECF9D
:1007B000883F10F0888FE2CFC8010E949A02E9CFEB
:1007C00080E0DDCF0F931F93CF93DF93EC018B017C
:1007D000EC85FD8580819181009711F00E94E203F4
:1007E000E881F981008CF18DE02DB801CE01DF9117
:1007F000CF911F910F910994CF92DF92EF92FF92C8
:10080000CF93DF93EC016A017B01EC85FD8580814C
:100810009181009711F00E94FC03E881F98106881C
:10082000F789E02DB701A601CE01DF91CF91FF90AE
:10083000EF90DF90CF9009940F931F93CF93DF93A6
:1008400000D000D01F92CDB7DEB78C0129833A8348
:100850004B835C836D83DC011C96ED91FC91808160
:100860009181009711F00E941C04D801ED91FC9138
:100870000488F589E02D29813A814B815C816D8165
:10088000C8010F900F900F900F900F90DF91CF91B4
:100890001F910F910994CF92DF92EF92FF92CF9325
:1008A000DF93EC016A017B01EC85FD8580819181FC
:1008B000009711F00E944B04E881F9810288F389C6
:1008C000E02DB701A601CE01DF91CF91FF90EF900F
:1008D000DF90CF900994FC01A281B381109749F079
:1008E000ED91FC9111970684F785E02DAC01CD01C7
:1008F00009940895CF93DF93DB011496ED91FC9159
:100900001597309701F12481358112964D915C91B4
:10091000139721153105D1F0E9017B836A83538355
:100920004283B583A4831396FC93EE931297159696
:100930003C932E9314974115510561F0DA011596F9
:10094000FC93EE931497DF91CF910895EC01798396
:100950006883E5CFEC01FB83EA83F5CFDC01569693
:10096000ED91FC91309711F0CB0109940895DC01D1
:100970005496ED91FC91309719F0CB01BA0109948E
:1009800008950F931F93CF93DF93CDB7DEB72A97C8
:100990000FB6F894DEBF0FBECDBF2E833F834887CE
:1009A00059876A87DC015296ED91FC91309771F579
:1009B00085E0FE013696DE01119601900D928A9532
:1009C000E1F70091090310910A030115110531F1B6
:1009D000D801ED91FC910284F385E02D29813A81C3
:1009E0004B815C816D81C8010995882311F1B801A3
:1009F00089E093E02A960FB6F894DEBF0FBECDBF14
:100A0000DF91CF911F910F910C947A044E815F81F9
:100A1000688579858A850995882351F22A960FB6CB
:100A2000F894DEBF0FBECDBFDF91CF911F910F9124
:100A30000895F80102811381C8CFEF92FF920F93BE
:100A40001F93CF93DF93D42FC52F162F072FDC01D1
:100A50005096ED91FC913097C1F48D2F807F803BB3
:100A600009F04AC0C93781F5C0911903D0911A0322
:100A70002097C9F0E881F9810680F781E02DCE0149
:100A800009950A80DB81C02DF3CF642F752F812F4C
:100A9000902F0995882309F3DF91CF911F910F9132
:100AA000FF90EF900895C0911103D0911203209709
:100AB00099F3E881F9810680F781E02DCE0109954F
:100AC0000A80DB81C02DF3CFE0901903F0901A0368
:100AD000CB3709F091C0C0912103D0912203209718
:100AE000D9F2E881F9810680F781E02DCE010995E0
:100AF0000A80DB81C02DF3CF813B60F5803949F05E
:100B0000E0901D03F0901E03803A09F455C0803830
:100B100019F6E0902103F0902203E114F10409F4A6
:100B2000BBCFD701ED91FC910284F385E02D4D2FD1
:100B30005C2F612F702FC70109958823B1F1B70190
:100B400081E293E0DF91CF911F910F91FF90EF90A1
:100B50000C947A04803D09F470C0803E09F492C080
:100B6000803C09F099CFE0901503F0901603E11452
:100B7000F10409F491CFD701ED91FC910284F38542
:100B8000E02D4D2F5C2F612F702FC7010995882311
:100B900009F44FC0B70185E193E0DF91CF911F9138
:100BA0000F91FF90EF900C947A04F701E280F380AC
:100BB000B4CFF701E280F380E114F10409F46CCFC3
:100BC000D701ED91FC910284F385E02D4D2F5C2F30
:100BD000612F702FC7010995882359F3B7018DE163
:100BE00093E0DF91CF911F910F91FF90EF900C94C4
:100BF0007A04F701E280F380E114F10409F44CCFA8
:100C0000D701ED91FC910284F385E02D4D2F5C2FEF
:100C1000612F702FC7010995882359F3B70189E126
:100C200093E0DF91CF911F910F91FF90EF900C9483
:100C30007A04F701E280F3809ACFE0901103F090FC
:100C40001203E114F10409F427CFD701ED91FC91CF
:100C50000284F385E02D4D2F5C2F612F702FC7018B
:100C60000995882359F0B70181E193E0DF91CF9195
:100C70001F910F91FF90EF900C947A04F701E2809E
:100C8000F380DFCFE0900D03F0900E03E114F10448
:100C900009F402CFD701ED91FC910284F385E02D98
:100CA0004D2F5C2F612F702FC7010995882359F0B4
:100CB000B7018DE093E0DF91CF911F910F91FF90ED
:100CC000EF900C947A04F701E280F380DFCFDC012F
:100CD00018968D919C91009739F0DC01ED91FC9173
:100CE0000284F385E02D09940895DC0118968D9116
:100CF0009C91009739F0DC01ED91FC910084F18525
:100D0000E02D09940895CF93DF93CDB7DEB72A97EE
:100D10000FB6F894DEBF0FBECDBF2E833F8348874A
:100D200059876A8725E0FE013696DE01119601900B
:100D30000D922A95E1F7DC0118968D919C91009710
:100D4000A1F0DC01ED91FC910680F781E02D298175
:100D50003A814B815C816D812A960FB6F894DEBF93
:100D60000FBECDBFDF91CF9109942A960FB6F894AC
:100D7000DEBF0FBECDBFDF91CF910895DC01189685
:100D80008D919C91009739F0DC01ED91FC910480EC
:100D9000F581E02D09940895DC011A968D919C91BE
:100DA000009739F0DC01ED91FC910084F185E02D94
:100DB000099490E080E0089504970C94CC06DC013F
:100DC00018968D919C91009739F0DC01ED91FC9182
:100DD0000088F189E02D099490E080E00895EF9279
:100DE000FF920F931F93CF93DF93EC018B017A0156
:100DF00088899989009729F06817790711F00E946E
:100E0000DF0F198A188AEC85FD8580819181009712
:100E100081F02A853B852E153F0559F4DC01ED91C3
:100E2000FC910684F785E02DAE014C5F5F4FB80161
:100E3000099588859985009759F0DC01ED91FC9121
:100E40000684F785E02DAE014C5F5F4FB801099530
:100E50008A859B850097D9F0E816F906C1F0DC0178
:100E6000ED91FC910680F781E02DAE01B801099566
:100E70006A897B896115710551F08A859B85DC0142
:100E8000ED91FC910480F581E02DAE010995EE8590
:100E9000FF85808191810097A9F09C012C5F3F4FD5
:100EA000E216F30679F0DC01ED91FC91068CF78DEA
:100EB000E02DAE01B801DF91CF911F910F91FF900E
:100EC000EF900994DF91CF911F910F91FF90EF90D8
:100ED0000895EF92FF920F931F93CF93DF93EC014E
:100EE0008B017A0188899989009729F06817790719
:100EF00011F00E94DF0F198B088BEC85FD85808136
:100F00009181009781F02A853B852E153F0559F484
:100F1000DC01ED91FC910484F585E02DAE014C5F80
:100F20005F4FB801099588859985009759F0DC01D4
:100F3000ED91FC910484F585E02DAE014C5F5F4F8F
:100F4000B80109958A859B850097D9F0E816F906BE
:100F5000C1F06A897B896115710541F0DC01ED9171
:100F6000FC910680F781E02DAE0109958A859B856D
:100F7000DC01ED91FC910480F581E02DAE01B8011A
:100F80000995EE85FF85808191810097A9F09C01EC
:100F90002C5F3F4FE216F30679F0DC01ED91FC91F6
:100FA000048CF58DE02DAE01B801DF91CF911F913A
:100FB0000F91FF90EF900994DF91CF911F910F91C6
:100FC000FF90EF9008951F93CF93DF93DC0112966B
:100FD000CD91DC91209749F0288939898A899B89AC
:100FE0002115310531F4009739F4DF91CF911F912C
:100FF00008952F3F3F4F11F1019601F11BE08889C1
:101000009989009721F42A893B89232B71F3115088
:1010100061F3009739F0DC01ED91FC910680F781D6
:10102000E02D09958A899B89009749F3DC01ED91B0
:10103000FC910680F781E02D0995E1CF0E94DF0F3A
:10104000CF92DF92EF92FF92CF93DF93FC01228148
:101050003381232B89F06A017B01EC010E94E307B5
:10106000B701A6018A819B81DF91CF91FF90EF901C
:10107000DF90CF900C944B04DF91CF91FF90EF90D5
:10108000DF90CF9008958F929F92AF92BF92EF9290
:10109000FF920F931F93CF93DF93CDB7DEB7649783
:1010A0000FB6F894DEBF0FBECDBF7C01633009F4EC
:1010B000BBC0B0F46130D1F1623009F463C0649612
:1010C0000FB6F894DEBF0FBECDBFDF91CF911F9159
:1010D0000F91FF90EF90BF90AF909F908F900895E9
:1010E000643009F44FC0653051F7FC01848895885D
:1010F000A688B78886819781892B61F0C7010496FD
:101100000E94E307B501A401D70116968D919C9129
:101110000E94FC03F70180899189009781F2DC012C
:10112000ED91FC910480F581E02D18C0DC0154960E
:101130008D909D90AD90BC905797B501A4010496F9
:101140000E942008F70180899189009709F4B7CFA0
:10115000DC01ED91FC910190F081E02DA50194015D
:10116000B70164960FB6F894DEBF0FBECDBFDF9116
:10117000CF911F910F91FF90EF90BF90AF909F90F4
:101180008F900994F701E656FF4F80819181970176
:10119000265E3F4F3C872B879E878D878F85807F7C
:1011A0008F8785E0FE013B96DE01509601900D92FF
:1011B0008A95E1F785E0FE017096DE0116960190B2
:1011C0000D928A95E1F785E0FE013696DE011196D3
:1011D00001900D928A95E1F7F70186819781892B1D
:1011E00079F0C70104960E94E30729813A814B8177
:1011F0005C816D81D70116968D919C910E941C0493
:10120000F70180899189009709F459CFDC01ED91AC
:10121000FC910280F381E02D0E811F8128853985A4
:101220004A85B70109954BCFFC01008D118D868150
:101230009781009719F0B8010E94E203D7015096F8
:101240008D919C91009709F43ACFDC01ED91FC91CE
:101250000680F781E02DA801B70164960FB6F894D7
:10126000DEBF0FBECDBFDF91CF911F910F91FF90D9
:10127000EF90BF90AF909F908F900994CF92DF92A4
:10128000EF92FF921F93CF93DF93EC010496BE0180
:10129000625F7F4F209711F470E060E00E946B0462
:1012A0008FB7F894C090FF02D0900003E090010344
:1012B000F09002038FBF2FB7F8948091FF029091B6
:1012C0000003A0910103B09102032FBF8C199D0967
:1012D000AE09BF09843F9140A105B10560F4CE017C
:1012E0000E949B03182F682FCE010E9443081430E0
:1012F000B9F2123001F7DF91CF911F91FF90EF907B
:10130000DF90CF900895CF92DF92EF92FF920F93EC
:101310001F93CF93DF93EC016C0184E0C80ED11CC6
:10132000EE81FF81309739F100891189011511058E
:1013300009F046C002891389209709F5F12CE12CA8
:1013400022C001E038C0002309F43FC08E819F8194
:101350000097D9F1DC01ED91FC910484F585E02D35
:10136000A601B701DF91CF911F910F91FF90EF90F0
:10137000DF90CF90099410E000E0209739F07E01D3
:10138000AEE0EA0EF11CE016F10629F4B801C60140
:101390000E946B047801CE010E949B03182F00E08D
:1013A000112389F2612FCE010E944308143049F2C3
:1013B000123009F400E0CE010E949B03182FF0CFF9
:1013C000F12CE12C2097D9F6E6CFDF91CF911F9138
:1013D0000F91FF90EF90DF90CF900895FC01228154
:1013E00033812115310569F4FB0122853385232BD7
:1013F00011F00E94DF0F93878287FC017383628361
:101400000895C9010496EACFFC0122813381211598
:10141000310569F4FB0120853185232B11F00E94F1
:10142000DF0F91878087FC01738362830895C90170
:10143000EBCFCF93DF93EC01888599850097F1F08E
:10144000EE85FF856081718161157105B9F0DC0160
:101450001296ED91FC911397309731F0118610861A
:1014600013961C921E921297EA81FB81309721F00D
:10147000118610861B821A820E94040A8A859B8527
:101480000097F1F0EC85FD85608171816115710532
:10149000B9F0DC011296ED91FC911397309731F081
:1014A0001386128613961C921E921297EE81FF816C
:1014B000309721F0138612861F821E820E94EE0949
:1014C000E885F985309751F0A281B381109731F00A
:1014D00019961C921E92189713821282EA85FB8538
:1014E000309751F0A281B381109731F01B961C9276
:1014F0001E921A9713821282EE85FF858081918158
:10150000892B31F4EC85FD8580819181892B11F047
:101510000E94DF0FDF91CF910895CF93DF93EC010D
:101520008A819B81009749F004960E948D0A8A81E6
:101530009B810E94190A1B821A82DF91CF91089524
:1015400024E231E0FC01318320830C948D0ACF9397
:10155000DF93EC018A819B81009741F00E94A70AEA
:101560008A819B810E94190A1B821A82DF91CF9186
:101570000895CF93DF93EC018CE891E09983888301
:1015800082EA91E09D838C83CE018C960E949F100D
:10159000CE0148960E949F1083E292E0998388834F
:1015A00089E392E09D838C83CE0104960E94A00A79
:1015B00082E391E099838883CE01DF91CF910C94EF
:1015C000A70A04970C94B90A049608950296089500
:1015D0000596089502960895039608950296089533
:1015E000CF92DF92EF92FF92CF93DF93FC01C289FB
:1015F000D3898E559F4FFC01C080D180E280F3805B
:10160000E889F98982E08083C114F1EEDF06E10404
:10161000F104A1F060E079E08DE390E0A70196018C
:101620000E94E2142150310941095109569547950C
:1016300037952795211580E1380798F0E889F989D1
:10164000108260E874E88EE190E0A70196010E94A4
:10165000E2142150310941095109569547953795B2
:101660002795EC85FD853083EE85FF852083188ED8
:10167000EC89FD8986E08083EA89FB89808180612D
:101680008083EA89FB89808188608083EA89FB897D
:10169000808180688083EA89FB8980818F7D808357
:1016A000DF91CF91FF90EF90DF90CF900895089752
:1016B0000C94F00A2F923F924F925F926F927F921A
:1016C0008F929F92AF92BF92CF92DF92EF92FF9252
:1016D0000F931F93CF93DF93CDB7DEB72C970FB641
:1016E000F894DEBF0FBECDBF9A8389838FB7F8947D
:1016F0008090FF0290900003A0900103B09002033D
:101700008FBFE981FA8182859385A485B585B5016E
:10171000A401481B590B6A0B7B0B86819781A0851E
:10172000B185481759076A077B0708F4B9C0FC87D9
:10173000EB877F01F2E1EF0EF11C2B843C84712CCE
:10174000612CA1014A5B5F4F58874F83C101885BC1
:101750009F4F9A878987F7018081F2E0EF0EF11C95
:1017600061E00E94C3014B855C85445E5F4F5C83F2
:101770004B832301D12CC12CEB81FC812191319130
:10178000FC83EB833327F901E255FF4F8491F90184
:10179000E656FF4F1491F901EA57FF4F049130E0EC
:1017A00020E0002399F081110E949A01E02FF0E0DF
:1017B000EE0FFF1FE859FF4FA591B491EC911E2346
:1017C00091E080E009F490E0292F382F842D877074
:1017D00041E050E002C0440F551F8A95E2F75A835A
:1017E0004983922F9170820183E0159507958A9520
:1017F000E1F7EB85FC850E0F1F1FF801868584231A
:1018000041E009F440E0941779F1EF81F8857181A6
:10181000472F4F7080916D0390916E030496F101F4
:10182000EC0DFD1D50A55F7772957F70232B09F09D
:1018300050C0E985FA8560816F772E81207F4069ED
:10184000F22FF72BFE837F2F0E94200889819A8137
:1018500080959095F801968589238687EB85FC8590
:1018600082869386A486B586FFEFCF1ADF0A35E01D
:10187000430E511C46E0C416D10409F07DCF60E050
:10188000F701329780810E94C3015FEF651A750AE4
:1018900086E0280E311C95E06916710409F05BCFD3
:1018A0002C960FB6F894DEBF0FBECDBFDF91CF915F
:1018B0001F910F91FF90EF90DF90CF90BF90AF906E
:1018C0009F908F907F906F905F904F903F902F9060
:1018D00008952D81207F4068F22FF72BFD837F2F05
:1018E0006FE70E942008F8018685F9818F2BF801A7
:1018F000B4CFCF92DF92EF92FF920F931F93CF93CB
:10190000DF93EC017C018CE1E80EF11C6E01E8E252
:10191000CE0ED11C8701C016D10641F062E0F8015D
:1019200080810E94C3010E5F1F4FF5CF6296EC16B7
:10193000FD0631F060E088810E94C3012296F7CF56
:10194000DF91CF911F910F91FF90EF90DF90CF909B
:101950000895089508950895CF93DF93AC01FB0196
:10196000C481D581209721F0828193819B838A83D2
:10197000DA0112968D919C9113978E179F0721F48F
:101980001396DC93CE93129782819381009729F06E
:10199000DC011596DC93CE931497DA012D913C91DE
:1019A00011972E173F0711F48D939C931582148283
:1019B00013821282DF91CF910895FC0185EC91E0B2
:1019C000918380833097A1F0809173039091740389
:1019D000E817F90741F082819381892B21F48481F2
:1019E0009581892B29F0BF0183E793E00C94AC0C1F
:1019F0000895FC0180EB91E0918380833097A1F002
:101A000080916F0390917003E817F90741F082818C
:101A10009381892B21F484819581892B29F0BF0141
:101A20008FE693E00C94AC0C08952DEC31E0FC01B2
:101A3000318320830C94F90C28EB31E0FC013183D5
:101A400020830C94150DCF93DF93EC0189ED91E089
:101A5000998388838DEF91E09D838C838BE092E066
:101A60009987888787E192E09F878E878091070317
:101A700090910803009749F4209175033091760303
:101A80002115310511F0C9010897C817D90721F4AC
:101A900010920803109207038DEC91E099878887D4
:101AA000CE0108960E94DD0C83E292E09983888340
:101AB00089E392E09D838C83CE0104960E94A00A64
:101AC00082E391E099838883CE01DF91CF910C94DA
:101AD000A70A27E432E0FC01318320832DE632E0BF
:101AE000358324832BE732E03187208727E832E0F3
:101AF000378726870C94230D08970C94690D04975B
:101B00000C94690D0E970C94690D23E932E0FC01E9
:101B10003183208329EB32E03583248327EC32E0C4
:101B20003187208723ED32E0378726870C94690DB3
:101B300004970C94850D08970C94850D0E970C94C2
:101B4000850D04970C94230D08970C94230D0E9784
:101B50000C94230D0895683F38F0DC01ED91FC9161
:101B6000048CF58DE02D09940895242F287F203FC3
:101B700059F4403F49F06F77DC01ED91FC91008C06
:101B8000F18DE02D5F7709940895CF93DF93CDB762
:101B9000DEB72A970FB6F894DEBF0FBECDBF2E83F7
:101BA0003F83488759876A8725E0FE013696DE0124
:101BB000119601900D922A95E1F728853985232BFE
:101BC000A1F0DC01ED91FC91028CF38DE02D2981D7
:101BD0003A814B815C816D812A960FB6F894DEBF05
:101BE0000FBECDBFDF91CF9109942A960FB6F8941E
:101BF000DEBF0FBECDBFDF91CF91089520E8240F47
:101C0000203748F46F77DC01ED91FC910688F78965
:101C1000E02D5F7709940895089589EF92E0089583
:101C2000089508950E942F16CF93DF93EC010E9430
:101C3000850DCE01DF91CF910C94A61504970C94DD
:101C4000140E08970C94140E0E970C94140ECF9348
:101C5000DF93EC010E94A00ACE01DF91CF910C949A
:101C6000A615CF93DF93EC010E94B90ACE01DF9154
:101C7000CF910C94A61504970C94310E0C94A615D4
:101C80000C94A6150C94A615CF93DF93EC010E943B
:101C90001C0DCE01DF91CF910C94A615CF93DF934D
:101CA000EC010E94150DCE01DF91CF910C94A61589
:101CB000CF93DF93EC010E94DD0CCE01DF91CF9139
:101CC0000C94A615CF93DF93EC010E94F90CCE0182
:101CD000DF91CF910C94A615CF93DF93EC010E9476
:101CE000690DCE01DF91CF910C94A6150E970C943F
:101CF0006C0E08970C946C0E04970C946C0ECF939A
:101D0000DF93EC010E94230DCE01DF91CF910C9463
:101D1000A6150E970C947F0E08970C947F0E0497CF
:101D20000C947F0E1F920F920FB60F9211242F93D7
:101D30003F934F935F936F937F938F939F93AF9353
:101D4000BF93EF93FF9380EC93E00E940B01FF9110
:101D5000EF91BF91AF919F918F917F916F915F9123
:101D60004F913F912F910F900FBE0F901F9018959C
:101D70001F920F920FB60F9211242F938F939F9360
:101D8000EF93FF93E091D003F091D1038081E09134
:101D9000D603F091D70382FD1BC090818091D903B7
:101DA0008F5F8F732091DA03821741F0E091D9039E
:101DB000F0E0E054FC4F958F8093D903FF91EF91B1
:101DC0009F918F912F910F900FBE0F901F9018959C
:101DD0008081F4CF1F920F920FB60F9211242F9390
:101DE0003F938F939F93AF93BF938091FF02909106
:101DF0000003A0910103B09102033091FE0223E0A1
:101E0000230F2D3758F50196A11DB11D2093FE0219
:101E10008093FF0290930003A0930103B093020309
:101E20008091030390910403A0910503B0910603F0
:101E30000196A11DB11D8093030390930403A09309
:101E40000503B0930603BF91AF919F918F913F918E
:101E50002F910F900FBE0F901F90189526E8230F1B
:101E60000296A11DB11DD2CF1F920F920FB60F92F5
:101E700011242F933F934F935F936F937F938F938F
:101E80009F93AF93BF93EF93FF93E0910201F09183
:101E900003010995FF91EF91BF91AF919F918F91B0
:101EA0007F916F915F914F913F912F910F900FBE56
:101EB0000F901F9018951F920F920FB60F9211243A
:101EC0002F933F934F935F936F937F938F939F9342
:101ED000AF93BF93EF93FF93E0910001F091010165
:101EE0000995FF91EF91BF91AF919F918F917F9154
:101EF0006F915F914F913F912F910F900FBE0F9077
:101F00001F9018951F93CF93DF93EBEBF0E0949124
:101F1000E7EAF0E0D491E3E9F0E0C491CC23B9F032
:101F2000182F992319F0892F0E949A01EC2FF0E0C5
:101F3000EE0FFF1FE458FF4FA591B4918FB7F894AF
:101F4000EC91111108C0D095DE23DC938FBFDF9197
:101F5000CF911F910895DE2BF8CF8F929F92AF9271
:101F6000BF92CF92DF92EF92FF924B015C010E94F1
:101F7000FF016B017C010E94FF016C197D098E0934
:101F80009F09683E734081059105A8F321E0821AFC
:101F90009108A108B10888EEC80E83E0D81EE11CA4
:101FA000F11C81149104A104B10429F7FF90EF9072
:101FB000DF90CF90BF90AF909F908F90089561E099
:101FC0008DE00E94C30181E00E94820F62E370E015
:101FD00080E090E00E94AD0F80E00E94820F62E3FB
:101FE00070E080E090E00E94AD0F81E00E94820FDF
:101FF00062E370E080E090E00E94AD0F80E00E941C
:10200000820F62E573E080E090E00E94AD0FDBCFCD
:102010000F931F93CF93DF93EC018B0188859985F4
:102020008417950709F5198A188A8A859B85009770
:1020300041F0DC01ED91FC910680F781E02DAE01CD
:102040000995EE85FF8580819181009701F1DC0182
:10205000ED91FC91068CF78DE02DAE01B801DF917A
:10206000CF911F910F9109946A897B89601771073D
:1020700071F41B8A1A8A8A859B85009741F0DC01DE
:10208000ED91FC910680F781E02DAE01E8CFDF9164
:10209000CF911F910F91089504970C9408100F93FE
:1020A0001F93CF93DF93EC0188859985841795075B
:1020B00011F58B01798B688B8A859B85009741F0A0
:1020C000DC01ED91FC910480F581E02DAE010995D4
:1020D000EE85FF85808191810097F9F0DC01ED911B
:1020E000FC91048CF58DE02DAE01B801DF91CF910C
:1020F0001F910F9109948A899B89892B71F47B8B9D
:102100006A8B8A859B85009741F0DC01ED91FC91FB
:102110000480F581E02DAE01E9CFDF91CF911F91D1
:102120000F91089504970C944F100E970C943E094C
:102130000C943E0908970C9483090C948309CF935F
:10214000DF93EC018AE591E0998388838EE791E043
:102150009D838C83CE010E94190ACE0104960E94B1
:10216000A00A82E391E099838883CE01DF91CF9129
:102170000C94A70A04970C949F10CF93DF93EC0163
:102180000E949F10CE01DF91CF910C94A615049769
:102190000C94BD100F931F93CF93DF93CDB7DEB791
:1021A00066970FB6F894DEBF0FBECDBF1092C30383
:1021B0001092C20388EE93E0A0E0B0E08093C403E5
:1021C0009093C503A093C603B093C70388E491E03E
:1021D0009093C1038093C00385EC90E09093CD036E
:1021E0008093CC0384EC90E09093CF038093CE0354
:1021F00080EC90E09093D1038093D00381EC90E049
:102200009093D3038093D20382EC90E09093D50314
:102210008093D40386EC90E09093D7038093D60309
:102220001092D9031092DA031092DB031092DC03B0
:10223000809165038111ADC010922803109227038D
:1022400010922C0310922B038CE891E090932603BC
:102250008093250382EA91E090932A0380932903D7
:102260008AE191E4A0E0B0E080932D0390932E03E7
:10227000A0932F03B09330031092310310923203D6
:1022800010923303109234030E94FF0100912D033A
:1022900010912E0320912F0330913003601B710B9E
:1022A000820B930B6093310370933203809333035B
:1022B0009093340310923603109235031092380332
:1022C0001092370310923A031092390310923C0394
:1022D00010923B031092400310923F03109244036C
:1022E000109243032AE531E030933E0320933D03EF
:1022F0008EE791E09093420380934103109246034E
:1023000010924503109248031092470343E453E0B0
:1023100050934A03409349034FE353E050934C03D7
:1023200040934B0310924E0310924D0310925003B2
:1023300010924F03109254031092530310925803BB
:1023400010925703309352032093510390935603F6
:102350008093550310925A031092590310925C0314
:1023600010925B0387E593E090935E0380935D0397
:1023700083E593E09093600380935F031092620380
:1023800010926103109264031092630381E08093C2
:10239000650385E293E090936E0380936D03109242
:1023A000600410925F0410926404109263048091A0
:1023B000730390917403892B31F485E694E0909334
:1023C000740380937303E0917503F0917603F093A7
:1023D0006A04E0936904309721F085E694E09383E2
:1023E000828385E694E09093760380937503109240
:1023F00068041092670410926E0410926D0480ECD1
:1024000093E09093700480936F048091C0011092C8
:1024100071041092720410927304809374041092E9
:10242000750480917604807F809376041092F8047E
:102430001092F7041092F90481E08093FA0410924C
:10244000FB041092FC041092FD048FEF8093FE04B5
:1024500082E19AE7A0E0B0E08093FF04909300054A
:10246000A0930105B093020583E992E090935E0486
:1024700080935D0489EB92E0909362048093610401
:1024800087EC92E0909366048093650483ED92E07C
:1024900090936C0480936B048AE0EAE0F1E0DE0143
:1024A0001D9601900D928A95E1F78CE0E4E1F1E050
:1024B000DE01119601900D928A95E1F780916F03EC
:1024C00090917003892B31F487E793E09093700328
:1024D00080936F03E0917103F0917203F0937C039A
:1024E000E0937B03309721F087E793E09383828327
:1024F00087E793E0909372038093710310927A03BD
:102500001092790389E190E0A0E0B0E080937D0330
:1025100090937E03A0937F03B09380031092810376
:102520001092820310928303109284038AE0FE01CA
:102530003D96A9E8B3E001900D928A95E1F78CE011
:10254000FE013196A3E9B3E001900D928A95E1F77F
:1025500044E050E06FEF70E085E893E00E943416AD
:102560008EE1EBEDF2E0AFE9B3E001900D928A95D8
:10257000E1F781E08093BD0383E08093BE038FE7A2
:102580008093BF0388EB91E0909378038093770367
:1025900066960FB6F894DEBF0FBECDBFDF91CF9128
:1025A0001F910F910895789484B5826084BD84B59D
:1025B000816084BD85B5826085BD85B5816085BD3E
:1025C00080916E00816080936E00109281008091F6
:1025D000810082608093810080918100816080937E
:1025E0008100809180008160809380008091B100A3
:1025F00084608093B1008091B00081608093B000CE
:1026000080917A00846080937A0080917A00826061
:1026100080937A0080917A00816080937A00809123
:102620007A00806880937A001092C100C0916D0397
:10263000D0916E038E819F81892B89F58A819B8140
:10264000892B69F500910703109108030115110505
:1026500061F400917503109176030115110519F0CD
:102660000850110911F40E94DF0F7E0188E1E80E85
:10267000F11CB701CE010E94040AB701C8010496FB
:102680000E94EE097E01ACE2EA0EF11CB701CE0118
:1026900004960E94EE09B701C8010E94040A009145
:1026A0007303109174030115110561F0D801ED91C8
:1026B000FC910480F581E02DC8010995F8010281A3
:1026C0001381F1CF0091210310912203011511050F
:1026D00061F0D801ED91FC910480F581E02DC801F5
:1026E0000995F80102811381F1CF00911D0310912A
:1026F0001E030115110561F0D801ED91FC910480D4
:10270000F581E02DC8010995F80102811381F1CF0F
:102710000091190310911A030115110561F0D801F8
:10272000ED91FC910480F581E02DC8010995F80137
:1027300002811381F1CF0091150310911603011549
:10274000110561F0D801ED91FC910480F581E02D37
:10275000C8010995F80102811381F1CF009111039D
:10276000109112030115110561F0D801ED91FC9152
:102770000480F581E02DC8010995F80102811381DB
:10278000F1CF00910D0310910E030115110561F0B9
:10279000D801ED91FC910480F581E02DC8010995E7
:1027A000F80102811381F1CF0091090310910A030E
:1027B0000115110561F0D801ED91FC910480F581BE
:1027C000E02DC8010995F80102811381F1CF009134
:1027D0006F03109170030115110561F0D801ED919F
:1027E000FC910480F581E02DC8010995F801028172
:1027F0001381F1CF0E94FF01088519852A853B8549
:10280000601B710B820B930B6C877D878E879F8774
:1028100080E0E82E80E0F82E00916D0310916E03A9
:10282000C0916F03D0917003209759F0E881F9812E
:102830000680F781E02DCE0109950A80DB81C02D4D
:10284000F3CFC0917303D0917403209759F0E881BE
:10285000F9810680F781E02DCE0109950A80DB81A0
:10286000C02DF3CFC0912103D0912203209759F0BE
:10287000E881F9810084F185E02DCE0109950A8077
:10288000DB81C02DF3CFC0911D03D0911E03209793
:1028900059F0E881F9810084F185E02DCE01099598
:1028A0000A80DB81C02DF3CFC0911903D0911A03A8
:1028B000209759F0E881F9810084F185E02DCE015F
:1028C00009950A80DB81C02DF3CFC0911503D0910B
:1028D0001603209759F0E881F9810084F185E02DF5
:1028E000CE0109950A80DB81C02DF3CFC091110381
:1028F000D0911203209759F0E881F9810084F18585
:10290000E02DCE0109950A80DB81C02DF3CFC09167
:102910000D03D0910E03209759F0E881F9810084CE
:10292000F185E02DCE0109950A80DB81C02DF3CF22
:10293000C0910903D0910A03209759F0E881F981E9
:102940000084F185E02DCE0109950A80DB81C02D40
:10295000F3CF0E94FF01D8011C964D905D906D90C1
:102960007C901F9718968D909D90AD90BC901B9772
:10297000AB01BC0144195509660977094815590589
:102980006A057B0558F0D301C201880D991DAA1D67
:10299000BB1DF80184879587A687B787E114F104EA
:1029A00009F43ACF0E94F700882309F435CF0E943A
:1029B000000032CF87E793E00E941C0D8DE594E084
:1029C0000C94850DA1E21A2EAA1BBB1BFD010DC0A4
:1029D000AA1FBB1FEE1FFF1FA217B307E407F507CF
:1029E00020F0A21BB30BE40BF50B661F771F881FAB
:1029F000991F1A9469F760957095809590959B0141
:102A0000AC01BD01CF010895EE0FFF1F0590F491B9
:102A1000E02D09940F931F93CF93DF93823091059C
:102A200010F482E090E0E0910505F091060530E0B9
:102A300020E0B0E0A0E0309799F42115310509F4C9
:102A40004AC0281B390B24303105D8F58A819B8177
:102A50006115710589F1FB0193838283FE0111C029
:102A6000408151810281138148175907E0F04817CE
:102A7000590799F4109761F012960C9312971396D8
:102A80001C933296CF01DF91CF911F910F91089542
:102A90000093050510930605F4CF2115310551F07B
:102AA0004217530738F0A901DB019A01BD01DF018C
:102AB000F801C1CFEF01F9CF90930605809305058A
:102AC000CDCFFE01E20FF31F819391932250310984
:102AD00039832883D7CF2091030530910405232B18
:102AE00041F42091060130910701309304052093B1
:102AF000030520910401309105012115310541F4B0
:102B00002DB73EB74091080150910901241B350BA8
:102B1000E0910305F0910405E217F307A0F42E1BE2
:102B20003F0B2817390778F0AC014E5F5F4F241731
:102B3000350748F04E0F5F1F50930405409303057F
:102B4000819391939FCFF0E0E0E09CCFCF93DF9310
:102B50000097E9F0FC01329713821282A0910505DB
:102B6000B0910605ED0130E020E01097A1F420813E
:102B70003181820F931F209103053091040528179E
:102B8000390709F061C0F0930405E0930305DF9174
:102B9000CF910895EA01CE17DF07E8F54A815B81FE
:102BA0009E0141155105B1F7E901FB83EA83499183
:102BB0005991C40FD51FEC17FD0761F480819181F5
:102BC0000296840F951FE9019983888382819381FE
:102BD0009B838A83F0E0E0E012968D919C9113979D
:102BE0000097B9F52D913C911197CD010296820F76
:102BF000931F20910305309104052817390739F6F2
:102C0000309751F51092060510920505B093040512
:102C1000A0930305BCCFD383C28340815181840F2D
:102C2000951FC817D90761F44E5F5F4F888199815E
:102C3000480F591F518340838A819B8193838283EC
:102C40002115310509F0B0CFF0930605E093050595
:102C50009ECFFD01DC01C0CF13821282D7CF81E06D
:102C600090E0F8940C943B16DC0101C06D93415048
:102C70005040E0F7089510E0C2E6D0E004C0FE0145
:102C80000E9404152196C336D107C9F7F894FFCFE7
:102C90002402240200000705800002000300040053
:102CA000050006000700080009000A000B000C00E0
:102CB00000000000A00A270E110E110E100E0000D9
:102CC000000000000000120E120E120E120E110E65
:102CD000110E100E000000002D018D00BA007A01C7
:102CE000EB00C900DD00000000009F10BD10BE0613
:102CF0008306750667066907EF06DF06BE068306CC
:102D000075066706CC064F100810FCFF0000BA10CD
:102D1000C71092104C10DC0600000000B90A310EFA
:102D20001D05C104B704AE04110E110E100EFCFFF8
:102D30000000E10A3B0E110E110E100E0000000003
:102D4000F90C620E000000001C0D440E790C5A0BA9
:102D50000000000000DD0C580E0000000000000024
:102D600000120E120E0000000000000000FE0DC553
:102D70000DB50DAB0D110E110E100EAA0D120E1287
:102D80000E120E120E120E120EFCFF0000000000BA
:102D900000110E110E100EF8FF0000000000000CD4
:102DA0000E120EF2FF0000000000000D0E120E00C9
:102DB00000000000000000120E120E120E120E1182
:102DC0000E110E100EFCFF000000000000110E118D
:102DD0000E100E00000000690D6C0EFE0DC50DB545
:102DE0000DAB0D110E110E100EF00A9D1060032A8E
:102DF000030803FD02AA0D9810FCFF00007F0D7C64
:102E00000E110E110E100EF8FF00007C0D790E57FA
:102E10000B9A10F2FF0000820D760E0D0E95100039
:102E2000000000850D140EFE0DC50DB50DAB0D1186
:102E30000E110E100EF00A9D1060032A030803FD08
:102E400002AA0D9810FCFF0000980D1E0E110E1125
:102E50000E100EF8FF00009B0D210E570B9A10F27A
:102E6000FF00009E0D240E0D0E9510242526272808
:102E7000292A2B2C2D2E2F3031323334353637384A
:0E2E8000393A3B3C3D3E3F40413C3F3E000066
:00000001FF
